{
  "_format": "hh-sol-artifact-1",
  "contractName": "Floopy",
  "sourceName": "contracts/Token.sol",
  "abi": [
    {
      "inputs": [],
      "stateMutability": "nonpayable",
      "type": "constructor"
    },
    {
      "anonymous": false,
      "inputs": [
        {
          "indexed": true,
          "internalType": "address",
          "name": "owner",
          "type": "address"
        },
        {
          "indexed": true,
          "internalType": "address",
          "name": "spender",
          "type": "address"
        },
        {
          "indexed": false,
          "internalType": "uint256",
          "name": "value",
          "type": "uint256"
        }
      ],
      "name": "Approval",
      "type": "event"
    },
    {
      "anonymous": false,
      "inputs": [
        {
          "indexed": true,
          "internalType": "address",
          "name": "previousOwner",
          "type": "address"
        },
        {
          "indexed": true,
          "internalType": "address",
          "name": "newOwner",
          "type": "address"
        }
      ],
      "name": "OwnershipTransferred",
      "type": "event"
    },
    {
      "anonymous": false,
      "inputs": [
        {
          "indexed": true,
          "internalType": "address",
          "name": "from",
          "type": "address"
        },
        {
          "indexed": true,
          "internalType": "address",
          "name": "to",
          "type": "address"
        },
        {
          "indexed": false,
          "internalType": "uint256",
          "name": "value",
          "type": "uint256"
        }
      ],
      "name": "Transfer",
      "type": "event"
    },
    {
      "inputs": [
        {
          "internalType": "address",
          "name": "owner",
          "type": "address"
        },
        {
          "internalType": "address",
          "name": "spender",
          "type": "address"
        }
      ],
      "name": "allowance",
      "outputs": [
        {
          "internalType": "uint256",
          "name": "",
          "type": "uint256"
        }
      ],
      "stateMutability": "view",
      "type": "function"
    },
    {
      "inputs": [
        {
          "internalType": "address",
          "name": "spender",
          "type": "address"
        },
        {
          "internalType": "uint256",
          "name": "amount",
          "type": "uint256"
        }
      ],
      "name": "approve",
      "outputs": [
        {
          "internalType": "bool",
          "name": "",
          "type": "bool"
        }
      ],
      "stateMutability": "nonpayable",
      "type": "function"
    },
    {
      "inputs": [
        {
          "internalType": "address",
          "name": "account",
          "type": "address"
        }
      ],
      "name": "balanceOf",
      "outputs": [
        {
          "internalType": "uint256",
          "name": "",
          "type": "uint256"
        }
      ],
      "stateMutability": "view",
      "type": "function"
    },
    {
      "inputs": [
        {
          "internalType": "uint256",
          "name": "amount",
          "type": "uint256"
        }
      ],
      "name": "burn",
      "outputs": [],
      "stateMutability": "nonpayable",
      "type": "function"
    },
    {
      "inputs": [
        {
          "internalType": "address",
          "name": "account",
          "type": "address"
        },
        {
          "internalType": "uint256",
          "name": "amount",
          "type": "uint256"
        }
      ],
      "name": "burnFrom",
      "outputs": [],
      "stateMutability": "nonpayable",
      "type": "function"
    },
    {
      "inputs": [],
      "name": "cap",
      "outputs": [
        {
          "internalType": "uint256",
          "name": "",
          "type": "uint256"
        }
      ],
      "stateMutability": "view",
      "type": "function"
    },
    {
      "inputs": [],
      "name": "decimals",
      "outputs": [
        {
          "internalType": "uint8",
          "name": "",
          "type": "uint8"
        }
      ],
      "stateMutability": "view",
      "type": "function"
    },
    {
      "inputs": [
        {
          "internalType": "address",
          "name": "spender",
          "type": "address"
        },
        {
          "internalType": "uint256",
          "name": "subtractedValue",
          "type": "uint256"
        }
      ],
      "name": "decreaseAllowance",
      "outputs": [
        {
          "internalType": "bool",
          "name": "",
          "type": "bool"
        }
      ],
      "stateMutability": "nonpayable",
      "type": "function"
    },
    {
      "inputs": [
        {
          "internalType": "uint256",
          "name": "",
          "type": "uint256"
        }
      ],
      "name": "feedbacks",
      "outputs": [
        {
          "internalType": "string",
          "name": "name",
          "type": "string"
        },
        {
          "internalType": "string",
          "name": "email",
          "type": "string"
        },
        {
          "internalType": "string",
          "name": "message",
          "type": "string"
        }
      ],
      "stateMutability": "view",
      "type": "function"
    },
    {
      "inputs": [],
      "name": "getAllFeedback",
      "outputs": [
        {
          "components": [
            {
              "internalType": "string",
              "name": "name",
              "type": "string"
            },
            {
              "internalType": "string",
              "name": "email",
              "type": "string"
            },
            {
              "internalType": "string",
              "name": "message",
              "type": "string"
            }
          ],
          "internalType": "struct Floopy.Feedback[]",
          "name": "",
          "type": "tuple[]"
        }
      ],
      "stateMutability": "view",
      "type": "function"
    },
    {
      "inputs": [
        {
          "internalType": "uint256",
          "name": "index",
          "type": "uint256"
        }
      ],
      "name": "getFeedback",
      "outputs": [
        {
          "internalType": "string",
          "name": "name",
          "type": "string"
        },
        {
          "internalType": "string",
          "name": "email",
          "type": "string"
        },
        {
          "internalType": "string",
          "name": "message",
          "type": "string"
        }
      ],
      "stateMutability": "view",
      "type": "function"
    },
    {
      "inputs": [
        {
          "internalType": "address",
          "name": "spender",
          "type": "address"
        },
        {
          "internalType": "uint256",
          "name": "addedValue",
          "type": "uint256"
        }
      ],
      "name": "increaseAllowance",
      "outputs": [
        {
          "internalType": "bool",
          "name": "",
          "type": "bool"
        }
      ],
      "stateMutability": "nonpayable",
      "type": "function"
    },
    {
      "inputs": [
        {
          "internalType": "address",
          "name": "to",
          "type": "address"
        },
        {
          "internalType": "uint256",
          "name": "amount",
          "type": "uint256"
        }
      ],
      "name": "mint",
      "outputs": [],
      "stateMutability": "nonpayable",
      "type": "function"
    },
    {
      "inputs": [],
      "name": "name",
      "outputs": [
        {
          "internalType": "string",
          "name": "",
          "type": "string"
        }
      ],
      "stateMutability": "view",
      "type": "function"
    },
    {
      "inputs": [],
      "name": "owner",
      "outputs": [
        {
          "internalType": "address",
          "name": "",
          "type": "address"
        }
      ],
      "stateMutability": "view",
      "type": "function"
    },
    {
      "inputs": [],
      "name": "renounceOwnership",
      "outputs": [],
      "stateMutability": "nonpayable",
      "type": "function"
    },
    {
      "inputs": [
        {
          "internalType": "string",
          "name": "_name",
          "type": "string"
        },
        {
          "internalType": "string",
          "name": "_email",
          "type": "string"
        },
        {
          "internalType": "string",
          "name": "_message",
          "type": "string"
        }
      ],
      "name": "submitFeedback",
      "outputs": [],
      "stateMutability": "nonpayable",
      "type": "function"
    },
    {
      "inputs": [],
      "name": "symbol",
      "outputs": [
        {
          "internalType": "string",
          "name": "",
          "type": "string"
        }
      ],
      "stateMutability": "view",
      "type": "function"
    },
    {
      "inputs": [],
      "name": "totalSupply",
      "outputs": [
        {
          "internalType": "uint256",
          "name": "",
          "type": "uint256"
        }
      ],
      "stateMutability": "view",
      "type": "function"
    },
    {
      "inputs": [
        {
          "internalType": "address",
          "name": "to",
          "type": "address"
        },
        {
          "internalType": "uint256",
          "name": "amount",
          "type": "uint256"
        }
      ],
      "name": "transfer",
      "outputs": [
        {
          "internalType": "bool",
          "name": "",
          "type": "bool"
        }
      ],
      "stateMutability": "nonpayable",
      "type": "function"
    },
    {
      "inputs": [
        {
          "internalType": "address",
          "name": "from",
          "type": "address"
        },
        {
          "internalType": "address",
          "name": "to",
          "type": "address"
        },
        {
          "internalType": "uint256",
          "name": "amount",
          "type": "uint256"
        }
      ],
      "name": "transferFrom",
      "outputs": [
        {
          "internalType": "bool",
          "name": "",
          "type": "bool"
        }
      ],
      "stateMutability": "nonpayable",
      "type": "function"
    },
    {
      "inputs": [
        {
          "internalType": "address",
          "name": "newOwner",
          "type": "address"
        }
      ],
      "name": "transferOwnership",
      "outputs": [],
      "stateMutability": "nonpayable",
      "type": "function"
    }
  ],
  "bytecode": "0x60806040526012600a62000014919062000794565b640ba43b7400620000269190620007e5565b6007553480156200003657600080fd5b506040518060400160405280600681526020017f466c6f6f707900000000000000000000000000000000000000000000000000008152506040518060400160405280600381526020017f464c5000000000000000000000000000000000000000000000000000000000008152508160039081620000b4919062000aa0565b508060049081620000c6919062000aa0565b505050620000e9620000dd6200015e60201b60201c565b6200016660201b60201c565b620001336040518060400160405280601481526020017f6f776e65723a202573206d61786361703a202573000000000000000000000000815250336007546200022c60201b60201c565b6200014733600754620002d560201b60201c565b62000158336200044260201b60201c565b62000eb3565b600033905090565b6000600560009054906101000a900473ffffffffffffffffffffffffffffffffffffffff16905081600560006101000a81548173ffffffffffffffffffffffffffffffffffffffff021916908373ffffffffffffffffffffffffffffffffffffffff1602179055508173ffffffffffffffffffffffffffffffffffffffff168173ffffffffffffffffffffffffffffffffffffffff167f8be0079c531659141344cd1fd0a4f28419497f9722a3daafe3b4186f6b6457e060405160405180910390a35050565b620002d0838383604051602401620002479392919062000c6c565b6040516020818303038152906040527f0d26b925000000000000000000000000000000000000000000000000000000007bffffffffffffffffffffffffffffffffffffffffffffffffffffffff19166020820180517bffffffffffffffffffffffffffffffffffffffffffffffffffffffff8381831617835250505050620004d860201b60201c565b505050565b600073ffffffffffffffffffffffffffffffffffffffff168273ffffffffffffffffffffffffffffffffffffffff160362000347576040517f08c379a00000000000000000000000000000000000000000000000000000000081526004016200033e9062000d00565b60405180910390fd5b6200035b600083836200050160201b60201c565b80600260008282546200036f919062000d22565b92505081905550806000808473ffffffffffffffffffffffffffffffffffffffff1673ffffffffffffffffffffffffffffffffffffffff168152602001908152602001600020600082825401925050819055508173ffffffffffffffffffffffffffffffffffffffff16600073ffffffffffffffffffffffffffffffffffffffff167fddf252ad1be2c89b69c2b068fc378daa952ba7f163c4a11628f55a4df523b3ef8360405162000422919062000d5d565b60405180910390a36200043e600083836200050660201b60201c565b5050565b620004526200050b60201b60201c565b600073ffffffffffffffffffffffffffffffffffffffff168173ffffffffffffffffffffffffffffffffffffffff1603620004c4576040517f08c379a0000000000000000000000000000000000000000000000000000000008152600401620004bb9062000df0565b60405180910390fd5b620004d5816200016660201b60201c565b50565b620004fe81620004f96200059c60201b62000fa017620005bd60201b60201c565b60201c565b50565b505050565b505050565b6200051b6200015e60201b60201c565b73ffffffffffffffffffffffffffffffffffffffff1662000541620005d160201b60201c565b73ffffffffffffffffffffffffffffffffffffffff16146200059a576040517f08c379a0000000000000000000000000000000000000000000000000000000008152600401620005919062000e62565b60405180910390fd5b565b60006a636f6e736f6c652e6c6f679050600080835160208501845afa505050565b620005fb60201b6200190517819050919050565b6000600560009054906101000a900473ffffffffffffffffffffffffffffffffffffffff16905090565b6200060562000e84565b565b7f4e487b7100000000000000000000000000000000000000000000000000000000600052601160045260246000fd5b60008160011c9050919050565b6000808291508390505b600185111562000695578086048111156200066d576200066c62000607565b5b60018516156200067d5780820291505b80810290506200068d8562000636565b94506200064d565b94509492505050565b600082620006b0576001905062000783565b81620006c0576000905062000783565b8160018114620006d95760028114620006e4576200071a565b600191505062000783565b60ff841115620006f957620006f862000607565b5b8360020a91508482111562000713576200071262000607565b5b5062000783565b5060208310610133831016604e8410600b8410161715620007545782820a9050838111156200074e576200074d62000607565b5b62000783565b62000763848484600162000643565b925090508184048111156200077d576200077c62000607565b5b81810290505b9392505050565b6000819050919050565b6000620007a1826200078a565b9150620007ae836200078a565b9250620007dd7fffffffffffffffffffffffffffffffffffffffffffffffffffffffffffffffff84846200069e565b905092915050565b6000620007f2826200078a565b9150620007ff836200078a565b92508282026200080f816200078a565b9150828204841483151762000829576200082862000607565b5b5092915050565b600081519050919050565b7f4e487b7100000000000000000000000000000000000000000000000000000000600052604160045260246000fd5b7f4e487b7100000000000000000000000000000000000000000000000000000000600052602260045260246000fd5b60006002820490506001821680620008b257607f821691505b602082108103620008c857620008c76200086a565b5b50919050565b60008190508160005260206000209050919050565b60006020601f8301049050919050565b600082821b905092915050565b600060088302620009327fffffffffffffffffffffffffffffffffffffffffffffffffffffffffffffffff82620008f3565b6200093e8683620008f3565b95508019841693508086168417925050509392505050565b6000819050919050565b6000620009816200097b62000975846200078a565b62000956565b6200078a565b9050919050565b6000819050919050565b6200099d8362000960565b620009b5620009ac8262000988565b84845462000900565b825550505050565b600090565b620009cc620009bd565b620009d981848462000992565b505050565b5b8181101562000a0157620009f5600082620009c2565b600181019050620009df565b5050565b601f82111562000a505762000a1a81620008ce565b62000a2584620008e3565b8101602085101562000a35578190505b62000a4d62000a4485620008e3565b830182620009de565b50505b505050565b600082821c905092915050565b600062000a756000198460080262000a55565b1980831691505092915050565b600062000a90838362000a62565b9150826002028217905092915050565b62000aab8262000830565b67ffffffffffffffff81111562000ac75762000ac66200083b565b5b62000ad3825462000899565b62000ae082828562000a05565b600060209050601f83116001811462000b18576000841562000b03578287015190505b62000b0f858262000a82565b86555062000b7f565b601f19841662000b2886620008ce565b60005b8281101562000b525784890151825560018201915060208501945060208101905062000b2b565b8683101562000b72578489015162000b6e601f89168262000a62565b8355505b6001600288020188555050505b505050505050565b600082825260208201905092915050565b60005b8381101562000bb857808201518184015260208101905062000b9b565b60008484015250505050565b6000601f19601f8301169050919050565b600062000be28262000830565b62000bee818562000b87565b935062000c0081856020860162000b98565b62000c0b8162000bc4565b840191505092915050565b600073ffffffffffffffffffffffffffffffffffffffff82169050919050565b600062000c438262000c16565b9050919050565b62000c558162000c36565b82525050565b62000c66816200078a565b82525050565b6000606082019050818103600083015262000c88818662000bd5565b905062000c99602083018562000c4a565b62000ca8604083018462000c5b565b949350505050565b7f45524332303a206d696e7420746f20746865207a65726f206164647265737300600082015250565b600062000ce8601f8362000b87565b915062000cf58262000cb0565b602082019050919050565b6000602082019050818103600083015262000d1b8162000cd9565b9050919050565b600062000d2f826200078a565b915062000d3c836200078a565b925082820190508082111562000d575762000d5662000607565b5b92915050565b600060208201905062000d74600083018462000c5b565b92915050565b7f4f776e61626c653a206e6577206f776e657220697320746865207a65726f206160008201527f6464726573730000000000000000000000000000000000000000000000000000602082015250565b600062000dd860268362000b87565b915062000de58262000d7a565b604082019050919050565b6000602082019050818103600083015262000e0b8162000dc9565b9050919050565b7f4f776e61626c653a2063616c6c6572206973206e6f7420746865206f776e6572600082015250565b600062000e4a60208362000b87565b915062000e578262000e12565b602082019050919050565b6000602082019050818103600083015262000e7d8162000e3b565b9050919050565b7f4e487b7100000000000000000000000000000000000000000000000000000000600052605160045260246000fd5b612b1e8062000ec36000396000f3fe608060405234801561001057600080fd5b50600436106101425760003560e01c806370a08231116100b8578063a457c2d71161007c578063a457c2d71461037d578063a9059cbb146103ad578063d3b68664146103dd578063dd62ed3e146103fb578063f201d39a1461042b578063f2fde38b1461044757610142565b806370a08231146102eb578063715018a61461031b57806379cc6790146103255780638da5cb5b1461034157806395d89b411461035f57610142565b80632bb8b0dc1161010a5780632bb8b0dc14610215578063313ce56714610247578063355274ea14610265578063395093511461028357806340c10f19146102b357806342966c68146102cf57610142565b806306fdde0314610147578063095ea7b3146101655780631106a3821461019557806318160ddd146101c757806323b872dd146101e5575b600080fd5b61014f610463565b60405161015c919061199f565b60405180910390f35b61017f600480360381019061017a9190611a69565b6104f5565b60405161018c9190611ac4565b60405180910390f35b6101af60048036038101906101aa9190611adf565b610518565b6040516101be93929190611b0c565b60405180910390f35b6101cf610748565b6040516101dc9190611b67565b60405180910390f35b6101ff60048036038101906101fa9190611b82565b610752565b60405161020c9190611ac4565b60405180910390f35b61022f600480360381019061022a9190611adf565b610781565b60405161023e93929190611b0c565b60405180910390f35b61024f610953565b60405161025c9190611bf1565b60405180910390f35b61026d61095c565b60405161027a9190611b67565b60405180910390f35b61029d60048036038101906102989190611a69565b610962565b6040516102aa9190611ac4565b60405180910390f35b6102cd60048036038101906102c89190611a69565b610999565b005b6102e960048036038101906102e49190611adf565b610a06565b005b61030560048036038101906103009190611c0c565b610a1a565b6040516103129190611b67565b60405180910390f35b610323610a62565b005b61033f600480360381019061033a9190611a69565b610a76565b005b610349610a96565b6040516103569190611c48565b60405180910390f35b610367610ac0565b604051610374919061199f565b60405180910390f35b61039760048036038101906103929190611a69565b610b52565b6040516103a49190611ac4565b60405180910390f35b6103c760048036038101906103c29190611a69565b610bc9565b6040516103d49190611ac4565b60405180910390f35b6103e5610bec565b6040516103f29190611dcd565b60405180910390f35b61041560048036038101906104109190611def565b610e01565b6040516104229190611b67565b60405180910390f35b61044560048036038101906104409190611f64565b610e88565b005b610461600480360381019061045c9190611c0c565b610f1d565b005b6060600380546104729061203a565b80601f016020809104026020016040519081016040528092919081815260200182805461049e9061203a565b80156104eb5780601f106104c0576101008083540402835291602001916104eb565b820191906000526020600020905b8154815290600101906020018083116104ce57829003601f168201915b5050505050905090565b600080610500610fc1565b905061050d818585610fc9565b600191505092915050565b60608060606006805490508410610564576040517f08c379a000000000000000000000000000000000000000000000000000000000815260040161055b906120b7565b60405180910390fd5b60006006858154811061057a576105796120d7565b5b906000526020600020906003020190508060000181600101826002018280546105a29061203a565b80601f01602080910402602001604051908101604052809291908181526020018280546105ce9061203a565b801561061b5780601f106105f05761010080835404028352916020019161061b565b820191906000526020600020905b8154815290600101906020018083116105fe57829003601f168201915b5050505050925081805461062e9061203a565b80601f016020809104026020016040519081016040528092919081815260200182805461065a9061203a565b80156106a75780601f1061067c576101008083540402835291602001916106a7565b820191906000526020600020905b81548152906001019060200180831161068a57829003601f168201915b505050505091508080546106ba9061203a565b80601f01602080910402602001604051908101604052809291908181526020018280546106e69061203a565b80156107335780601f1061070857610100808354040283529160200191610733565b820191906000526020600020905b81548152906001019060200180831161071657829003601f168201915b50505050509050935093509350509193909250565b6000600254905090565b60008061075d610fc1565b905061076a858285611192565b61077585858561121e565b60019150509392505050565b6006818154811061079157600080fd5b90600052602060002090600302016000915090508060000180546107b49061203a565b80601f01602080910402602001604051908101604052809291908181526020018280546107e09061203a565b801561082d5780601f106108025761010080835404028352916020019161082d565b820191906000526020600020905b81548152906001019060200180831161081057829003601f168201915b5050505050908060010180546108429061203a565b80601f016020809104026020016040519081016040528092919081815260200182805461086e9061203a565b80156108bb5780601f10610890576101008083540402835291602001916108bb565b820191906000526020600020905b81548152906001019060200180831161089e57829003601f168201915b5050505050908060020180546108d09061203a565b80601f01602080910402602001604051908101604052809291908181526020018280546108fc9061203a565b80156109495780601f1061091e57610100808354040283529160200191610949565b820191906000526020600020905b81548152906001019060200180831161092c57829003601f168201915b5050505050905083565b60006012905090565b60075481565b60008061096d610fc1565b905061098e81858561097f8589610e01565b6109899190612135565b610fc9565b600191505092915050565b6109a1611494565b600754816109ad610748565b6109b79190612135565b11156109f8576040517f08c379a00000000000000000000000000000000000000000000000000000000081526004016109ef906121b5565b60405180910390fd5b610a028282611512565b5050565b610a17610a11610fc1565b82611668565b50565b60008060008373ffffffffffffffffffffffffffffffffffffffff1673ffffffffffffffffffffffffffffffffffffffff168152602001908152602001600020549050919050565b610a6a611494565b610a746000611835565b565b610a8882610a82610fc1565b83611192565b610a928282611668565b5050565b6000600560009054906101000a900473ffffffffffffffffffffffffffffffffffffffff16905090565b606060048054610acf9061203a565b80601f0160208091040260200160405190810160405280929190818152602001828054610afb9061203a565b8015610b485780601f10610b1d57610100808354040283529160200191610b48565b820191906000526020600020905b815481529060010190602001808311610b2b57829003601f168201915b5050505050905090565b600080610b5d610fc1565b90506000610b6b8286610e01565b905083811015610bb0576040517f08c379a0000000000000000000000000000000000000000000000000000000008152600401610ba790612247565b60405180910390fd5b610bbd8286868403610fc9565b60019250505092915050565b600080610bd4610fc1565b9050610be181858561121e565b600191505092915050565b60606006805480602002602001604051908101604052809291908181526020016000905b82821015610df85783829060005260206000209060030201604051806060016040529081600082018054610c439061203a565b80601f0160208091040260200160405190810160405280929190818152602001828054610c6f9061203a565b8015610cbc5780601f10610c9157610100808354040283529160200191610cbc565b820191906000526020600020905b815481529060010190602001808311610c9f57829003601f168201915b50505050508152602001600182018054610cd59061203a565b80601f0160208091040260200160405190810160405280929190818152602001828054610d019061203a565b8015610d4e5780601f10610d2357610100808354040283529160200191610d4e565b820191906000526020600020905b815481529060010190602001808311610d3157829003601f168201915b50505050508152602001600282018054610d679061203a565b80601f0160208091040260200160405190810160405280929190818152602001828054610d939061203a565b8015610de05780601f10610db557610100808354040283529160200191610de0565b820191906000526020600020905b815481529060010190602001808311610dc357829003601f168201915b50505050508152505081526020019060010190610c10565b50505050905090565b6000600160008473ffffffffffffffffffffffffffffffffffffffff1673ffffffffffffffffffffffffffffffffffffffff16815260200190815260200160002060008373ffffffffffffffffffffffffffffffffffffffff1673ffffffffffffffffffffffffffffffffffffffff16815260200190815260200160002054905092915050565b6000604051806060016040528085815260200184815260200183815250905060068190806001815401808255809150506001900390600052602060002090600302016000909190919091506000820151816000019081610ee89190612413565b506020820151816001019081610efe9190612413565b506040820151816002019081610f149190612413565b50505050505050565b610f25611494565b600073ffffffffffffffffffffffffffffffffffffffff168173ffffffffffffffffffffffffffffffffffffffff1603610f94576040517f08c379a0000000000000000000000000000000000000000000000000000000008152600401610f8b90612557565b60405180910390fd5b610f9d81611835565b50565b60006a636f6e736f6c652e6c6f679050600080835160208501845afa505050565b600033905090565b600073ffffffffffffffffffffffffffffffffffffffff168373ffffffffffffffffffffffffffffffffffffffff1603611038576040517f08c379a000000000000000000000000000000000000000000000000000000000815260040161102f906125e9565b60405180910390fd5b600073ffffffffffffffffffffffffffffffffffffffff168273ffffffffffffffffffffffffffffffffffffffff16036110a7576040517f08c379a000000000000000000000000000000000000000000000000000000000815260040161109e9061267b565b60405180910390fd5b80600160008573ffffffffffffffffffffffffffffffffffffffff1673ffffffffffffffffffffffffffffffffffffffff16815260200190815260200160002060008473ffffffffffffffffffffffffffffffffffffffff1673ffffffffffffffffffffffffffffffffffffffff168152602001908152602001600020819055508173ffffffffffffffffffffffffffffffffffffffff168373ffffffffffffffffffffffffffffffffffffffff167f8c5be1e5ebec7d5bd14f71427d1e84f3dd0314c0f7b2291e5b200ac8c7c3b925836040516111859190611b67565b60405180910390a3505050565b600061119e8484610e01565b90507fffffffffffffffffffffffffffffffffffffffffffffffffffffffffffffffff8114611218578181101561120a576040517f08c379a0000000000000000000000000000000000000000000000000000000008152600401611201906126e7565b60405180910390fd5b6112178484848403610fc9565b5b50505050565b600073ffffffffffffffffffffffffffffffffffffffff168373ffffffffffffffffffffffffffffffffffffffff160361128d576040517f08c379a000000000000000000000000000000000000000000000000000000000815260040161128490612779565b60405180910390fd5b600073ffffffffffffffffffffffffffffffffffffffff168273ffffffffffffffffffffffffffffffffffffffff16036112fc576040517f08c379a00000000000000000000000000000000000000000000000000000000081526004016112f39061280b565b60405180910390fd5b6113078383836118fb565b60008060008573ffffffffffffffffffffffffffffffffffffffff1673ffffffffffffffffffffffffffffffffffffffff1681526020019081526020016000205490508181101561138d576040517f08c379a00000000000000000000000000000000000000000000000000000000081526004016113849061289d565b60405180910390fd5b8181036000808673ffffffffffffffffffffffffffffffffffffffff1673ffffffffffffffffffffffffffffffffffffffff16815260200190815260200160002081905550816000808573ffffffffffffffffffffffffffffffffffffffff1673ffffffffffffffffffffffffffffffffffffffff168152602001908152602001600020600082825401925050819055508273ffffffffffffffffffffffffffffffffffffffff168473ffffffffffffffffffffffffffffffffffffffff167fddf252ad1be2c89b69c2b068fc378daa952ba7f163c4a11628f55a4df523b3ef8460405161147b9190611b67565b60405180910390a361148e848484611900565b50505050565b61149c610fc1565b73ffffffffffffffffffffffffffffffffffffffff166114ba610a96565b73ffffffffffffffffffffffffffffffffffffffff1614611510576040517f08c379a000000000000000000000000000000000000000000000000000000000815260040161150790612909565b60405180910390fd5b565b600073ffffffffffffffffffffffffffffffffffffffff168273ffffffffffffffffffffffffffffffffffffffff1603611581576040517f08c379a000000000000000000000000000000000000000000000000000000000815260040161157890612975565b60405180910390fd5b61158d600083836118fb565b806002600082825461159f9190612135565b92505081905550806000808473ffffffffffffffffffffffffffffffffffffffff1673ffffffffffffffffffffffffffffffffffffffff168152602001908152602001600020600082825401925050819055508173ffffffffffffffffffffffffffffffffffffffff16600073ffffffffffffffffffffffffffffffffffffffff167fddf252ad1be2c89b69c2b068fc378daa952ba7f163c4a11628f55a4df523b3ef836040516116509190611b67565b60405180910390a361166460008383611900565b5050565b600073ffffffffffffffffffffffffffffffffffffffff168273ffffffffffffffffffffffffffffffffffffffff16036116d7576040517f08c379a00000000000000000000000000000000000000000000000000000000081526004016116ce90612a07565b60405180910390fd5b6116e3826000836118fb565b60008060008473ffffffffffffffffffffffffffffffffffffffff1673ffffffffffffffffffffffffffffffffffffffff16815260200190815260200160002054905081811015611769576040517f08c379a000000000000000000000000000000000000000000000000000000000815260040161176090612a99565b60405180910390fd5b8181036000808573ffffffffffffffffffffffffffffffffffffffff1673ffffffffffffffffffffffffffffffffffffffff1681526020019081526020016000208190555081600260008282540392505081905550600073ffffffffffffffffffffffffffffffffffffffff168373ffffffffffffffffffffffffffffffffffffffff167fddf252ad1be2c89b69c2b068fc378daa952ba7f163c4a11628f55a4df523b3ef8460405161181c9190611b67565b60405180910390a361183083600084611900565b505050565b6000600560009054906101000a900473ffffffffffffffffffffffffffffffffffffffff16905081600560006101000a81548173ffffffffffffffffffffffffffffffffffffffff021916908373ffffffffffffffffffffffffffffffffffffffff1602179055508173ffffffffffffffffffffffffffffffffffffffff168173ffffffffffffffffffffffffffffffffffffffff167f8be0079c531659141344cd1fd0a4f28419497f9722a3daafe3b4186f6b6457e060405160405180910390a35050565b505050565b505050565b61190d612ab9565b565b600081519050919050565b600082825260208201905092915050565b60005b8381101561194957808201518184015260208101905061192e565b60008484015250505050565b6000601f19601f8301169050919050565b60006119718261190f565b61197b818561191a565b935061198b81856020860161192b565b61199481611955565b840191505092915050565b600060208201905081810360008301526119b98184611966565b905092915050565b6000604051905090565b600080fd5b600080fd5b600073ffffffffffffffffffffffffffffffffffffffff82169050919050565b6000611a00826119d5565b9050919050565b611a10816119f5565b8114611a1b57600080fd5b50565b600081359050611a2d81611a07565b92915050565b6000819050919050565b611a4681611a33565b8114611a5157600080fd5b50565b600081359050611a6381611a3d565b92915050565b60008060408385031215611a8057611a7f6119cb565b5b6000611a8e85828601611a1e565b9250506020611a9f85828601611a54565b9150509250929050565b60008115159050919050565b611abe81611aa9565b82525050565b6000602082019050611ad96000830184611ab5565b92915050565b600060208284031215611af557611af46119cb565b5b6000611b0384828501611a54565b91505092915050565b60006060820190508181036000830152611b268186611966565b90508181036020830152611b3a8185611966565b90508181036040830152611b4e8184611966565b9050949350505050565b611b6181611a33565b82525050565b6000602082019050611b7c6000830184611b58565b92915050565b600080600060608486031215611b9b57611b9a6119cb565b5b6000611ba986828701611a1e565b9350506020611bba86828701611a1e565b9250506040611bcb86828701611a54565b9150509250925092565b600060ff82169050919050565b611beb81611bd5565b82525050565b6000602082019050611c066000830184611be2565b92915050565b600060208284031215611c2257611c216119cb565b5b6000611c3084828501611a1e565b91505092915050565b611c42816119f5565b82525050565b6000602082019050611c5d6000830184611c39565b92915050565b600081519050919050565b600082825260208201905092915050565b6000819050602082019050919050565b600082825260208201905092915050565b6000611cab8261190f565b611cb58185611c8f565b9350611cc581856020860161192b565b611cce81611955565b840191505092915050565b60006060830160008301518482036000860152611cf68282611ca0565b91505060208301518482036020860152611d108282611ca0565b91505060408301518482036040860152611d2a8282611ca0565b9150508091505092915050565b6000611d438383611cd9565b905092915050565b6000602082019050919050565b6000611d6382611c63565b611d6d8185611c6e565b935083602082028501611d7f85611c7f565b8060005b85811015611dbb5784840389528151611d9c8582611d37565b9450611da783611d4b565b925060208a01995050600181019050611d83565b50829750879550505050505092915050565b60006020820190508181036000830152611de78184611d58565b905092915050565b60008060408385031215611e0657611e056119cb565b5b6000611e1485828601611a1e565b9250506020611e2585828601611a1e565b9150509250929050565b600080fd5b600080fd5b7f4e487b7100000000000000000000000000000000000000000000000000000000600052604160045260246000fd5b611e7182611955565b810181811067ffffffffffffffff82111715611e9057611e8f611e39565b5b80604052505050565b6000611ea36119c1565b9050611eaf8282611e68565b919050565b600067ffffffffffffffff821115611ecf57611ece611e39565b5b611ed882611955565b9050602081019050919050565b82818337600083830152505050565b6000611f07611f0284611eb4565b611e99565b905082815260208101848484011115611f2357611f22611e34565b5b611f2e848285611ee5565b509392505050565b600082601f830112611f4b57611f4a611e2f565b5b8135611f5b848260208601611ef4565b91505092915050565b600080600060608486031215611f7d57611f7c6119cb565b5b600084013567ffffffffffffffff811115611f9b57611f9a6119d0565b5b611fa786828701611f36565b935050602084013567ffffffffffffffff811115611fc857611fc76119d0565b5b611fd486828701611f36565b925050604084013567ffffffffffffffff811115611ff557611ff46119d0565b5b61200186828701611f36565b9150509250925092565b7f4e487b7100000000000000000000000000000000000000000000000000000000600052602260045260246000fd5b6000600282049050600182168061205257607f821691505b6020821081036120655761206461200b565b5b50919050565b7f496e646578206f7574206f6620626f756e647300000000000000000000000000600082015250565b60006120a160138361191a565b91506120ac8261206b565b602082019050919050565b600060208201905081810360008301526120d081612094565b9050919050565b7f4e487b7100000000000000000000000000000000000000000000000000000000600052603260045260246000fd5b7f4e487b7100000000000000000000000000000000000000000000000000000000600052601160045260246000fd5b600061214082611a33565b915061214b83611a33565b925082820190508082111561216357612162612106565b5b92915050565b7f466c6f7070793a20636170206578636565646564000000000000000000000000600082015250565b600061219f60148361191a565b91506121aa82612169565b602082019050919050565b600060208201905081810360008301526121ce81612192565b9050919050565b7f45524332303a2064656372656173656420616c6c6f77616e63652062656c6f7760008201527f207a65726f000000000000000000000000000000000000000000000000000000602082015250565b600061223160258361191a565b915061223c826121d5565b604082019050919050565b6000602082019050818103600083015261226081612224565b9050919050565b60008190508160005260206000209050919050565b60006020601f8301049050919050565b600082821b905092915050565b6000600883026122c97fffffffffffffffffffffffffffffffffffffffffffffffffffffffffffffffff8261228c565b6122d3868361228c565b95508019841693508086168417925050509392505050565b6000819050919050565b600061231061230b61230684611a33565b6122eb565b611a33565b9050919050565b6000819050919050565b61232a836122f5565b61233e61233682612317565b848454612299565b825550505050565b600090565b612353612346565b61235e818484612321565b505050565b5b818110156123825761237760008261234b565b600181019050612364565b5050565b601f8211156123c75761239881612267565b6123a18461227c565b810160208510156123b0578190505b6123c46123bc8561227c565b830182612363565b50505b505050565b600082821c905092915050565b60006123ea600019846008026123cc565b1980831691505092915050565b600061240383836123d9565b9150826002028217905092915050565b61241c8261190f565b67ffffffffffffffff81111561243557612434611e39565b5b61243f825461203a565b61244a828285612386565b600060209050601f83116001811461247d576000841561246b578287015190505b61247585826123f7565b8655506124dd565b601f19841661248b86612267565b60005b828110156124b35784890151825560018201915060208501945060208101905061248e565b868310156124d057848901516124cc601f8916826123d9565b8355505b6001600288020188555050505b505050505050565b7f4f776e61626c653a206e6577206f776e657220697320746865207a65726f206160008201527f6464726573730000000000000000000000000000000000000000000000000000602082015250565b600061254160268361191a565b915061254c826124e5565b604082019050919050565b6000602082019050818103600083015261257081612534565b9050919050565b7f45524332303a20617070726f76652066726f6d20746865207a65726f2061646460008201527f7265737300000000000000000000000000000000000000000000000000000000602082015250565b60006125d360248361191a565b91506125de82612577565b604082019050919050565b60006020820190508181036000830152612602816125c6565b9050919050565b7f45524332303a20617070726f766520746f20746865207a65726f20616464726560008201527f7373000000000000000000000000000000000000000000000000000000000000602082015250565b600061266560228361191a565b915061267082612609565b604082019050919050565b6000602082019050818103600083015261269481612658565b9050919050565b7f45524332303a20696e73756666696369656e7420616c6c6f77616e6365000000600082015250565b60006126d1601d8361191a565b91506126dc8261269b565b602082019050919050565b60006020820190508181036000830152612700816126c4565b9050919050565b7f45524332303a207472616e736665722066726f6d20746865207a65726f20616460008201527f6472657373000000000000000000000000000000000000000000000000000000602082015250565b600061276360258361191a565b915061276e82612707565b604082019050919050565b6000602082019050818103600083015261279281612756565b9050919050565b7f45524332303a207472616e7366657220746f20746865207a65726f206164647260008201527f6573730000000000000000000000000000000000000000000000000000000000602082015250565b60006127f560238361191a565b915061280082612799565b604082019050919050565b60006020820190508181036000830152612824816127e8565b9050919050565b7f45524332303a207472616e7366657220616d6f756e742065786365656473206260008201527f616c616e63650000000000000000000000000000000000000000000000000000602082015250565b600061288760268361191a565b91506128928261282b565b604082019050919050565b600060208201905081810360008301526128b68161287a565b9050919050565b7f4f776e61626c653a2063616c6c6572206973206e6f7420746865206f776e6572600082015250565b60006128f360208361191a565b91506128fe826128bd565b602082019050919050565b60006020820190508181036000830152612922816128e6565b9050919050565b7f45524332303a206d696e7420746f20746865207a65726f206164647265737300600082015250565b600061295f601f8361191a565b915061296a82612929565b602082019050919050565b6000602082019050818103600083015261298e81612952565b9050919050565b7f45524332303a206275726e2066726f6d20746865207a65726f2061646472657360008201527f7300000000000000000000000000000000000000000000000000000000000000602082015250565b60006129f160218361191a565b91506129fc82612995565b604082019050919050565b60006020820190508181036000830152612a20816129e4565b9050919050565b7f45524332303a206275726e20616d6f756e7420657863656564732062616c616e60008201527f6365000000000000000000000000000000000000000000000000000000000000602082015250565b6000612a8360228361191a565b9150612a8e82612a27565b604082019050919050565b60006020820190508181036000830152612ab281612a76565b9050919050565b7f4e487b7100000000000000000000000000000000000000000000000000000000600052605160045260246000fdfea2646970667358221220767fd0890942e9b6a4f36d209b2833aded26878a3bf072aa3162e2209e45350f64736f6c63430008130033",
  "linkReferences": {},
  "deployedLinkReferences": {}
}